:020000040800F2
:1000000000080020A1010008F7320008072A0008B4
:10001000F53200086B0A0008C53B0008000000002C
:100020000000000000000000000000007F34000815
:100030006F0B0008000000007D340008E334000866
:10004000BB010008BB010008BB010008BB010008A0
:10005000BB010008BB010008BB010008BB01000890
:10006000BB010008BB010008BB010008BB01000880
:10007000BB0100086D0A0008BB010008BB010008B5
:10008000790A0008BB010008BB010008BB01000899
:10009000BB010008BB010008BB010008BB01000850
:1000A000BB010008BB010008BB010008BB01000840
:1000B000BB010008BB010008BB010008BB01000830
:1000C000BB010008BB010008BB010008BB01000820
:1000D000BB010008BB010008B13B0008BB010008E0
:1000E000BB010008BB010008BB010008BB01000800
:1000F000BB010008BB010008BB010008BB010008F0
:10010000BB010008BB010008BB010008BB010008DF
:10011000BD360008BB010008BB010008CD35000852
:10012000BB010008BB010008BB010008BB010008BF
:10013000BB010008BB010008BB010008BB010008AF
:10014000BB010008BB010008BB010008BB0100089F
:10015000BB010008BB010008BB010008BB0100088F
:10016000BB010008BB010008BB010008BB0100087F
:10017000BB010008BB010008BB0100080000000033
:10018000BB010008BB010008DFF810D000F0FAFB4B
:1001900000480047BD570008AFF30080000800206A
:1001A0000648804706480047FEE7FEE7FEE7FEE711
:1001B000FEE7FEE7FEE7FEE7FEE7FEE7753500082F
:1001C000890100082DE9F05F0546002092469B4614
:1001D00088460646814640241BE02846414647465D
:1001E000224600F0AEFA53465A46C01A914110D347
:1001F00011461846224600F095FA2D1A67EB0108C1
:100200004F4622460120002100F08CFA17EB00092E
:100210004E41201EA4F10104DFDC484631462A4647
:100220004346BDE8F09FD2B201E000F8012B491E21
:10023000FBD270470022F6E710B513460A46044683
:100240001946FFF7F0FF204610BD30B505462A4697
:100250000B4612F8010B13F8014B08B1A042F8D07D
:100260001CB1002802D06D1CF1E7284630BD421CAD
:1002700010F8011B0029FBD1801A704730B50546E4
:100280000020034600E05B1C934205D2EC5CC85C96
:10029000201A01D1002CF6D130BD70B5064603F00E
:1002A0005BFD046805460A220021304600F06BFA27
:1002B0002C6070BD2DE9FE4F804681EA0300C00F1F
:1002C0000C46009021F0004123F00045B8EB0200FD
:1002D000A94105D24046214690461C460B4602469F
:1002E00023F00040104347D0270DC7F30A00C3F3A3
:1002F0000A510290401A019040286BDAC3F31300B0
:1003000040F4801B0098924620B10023D2EB030AF0
:1003100063EB0B0B01985946C0F14002504600F0C8
:1003200001FA06460D4650465946019A00F019FA60
:1003300010EB08006141002487EA115284EAE77358
:100340001A4340D0009A62B3019A012A4FEA075239
:1003500015DC001B61EB02014FF0004202EA07527C
:10036000CDE90042001C41F5801132462B4600F0D9
:1003700051FA03B0BDE8F08F40462146F9E7001B73
:1003800061EB0201001C41F5801300185B4120184D
:10039000A2F5001747EB030140EAD570B6196D418D
:1003A00011E06D084FEA360645EAC0754FEA07527C
:1003B000001B61EB0201001C41F5801149084FEA66
:1003C00030000019514132462B4603B0BDE8F04FD2
:1003D00000F011BA0098012240000023D0EB020285
:1003E00063EBE073009821464FEAE074B8EB00003D
:1003F00061EB0401E9E783F000435BE781F0004132
:1004000058E72DE9FE4F81EA030404F0004421F08F
:10041000004100944FF0000B23F0004350EA010428
:100420005ED052EA03045BD0C3F30A54C1F30A5509
:100430002C44A4F2F3340194A0FB0254C1F3130141
:1004400041F48011C3F3130343F4801301FB02440E
:1004500000FB034E840A970A44EA815447EA835713
:10046000A4FB076802958D0A05FB07854FEA932CCC
:1004700004FB0C542705029D4FEA065847EA16373D
:10048000B5EB08056EEB070C870E920E47EA811755
:1004900042EA8312A7FB0201B6EB0B0164EB0004F6
:1004A0002B0D43EA0C335E1844EB1C50DA465146E0
:1004B000E7FB0201C5F313044FEA0B3343EA14537D
:1004C0004FEA0432019C43EA0603A4F10C040294AF
:1004D000009CCDE900B400F09DF903B0BDE8F08FB9
:1004E00000200146F9E72DE9F04D81EA030404F00C
:1004F000004B21F0004514464FF0000A23F0004164
:1005000050EA050220D054EA01021DD0C5F30A5773
:100510000246C5F31303C1F31300C1F30A5640F4B6
:10052000801543F48013A7EB0608101BD64608F28B
:10053000FD3873EB050002D308F1010801E09218C1
:100540005B41B8F1000F03DA00200146BDE8F08DF1
:1005500000204FF48011064684460EE0171B73EB13
:10056000050705D3121B63EB050306434CEA010C98
:1005700049084FEA300092185B4150EA0107EDD17B
:1005800052EA030012D082EA040083EA050108431C
:1005900005D0101BAB4106D20122002306E0002249
:1005A0004FF0004302E06FF0010253101AEB060017
:1005B0004CEB085110EB0A0041EB0B01BDE8F04D8C
:1005C00000F019B90EB5C10F80EAE0700844CA07FF
:1005D000002140F233438DE80E000A460B4600F03E
:1005E00019F903B000BD0EB540F23341029100216C
:1005F000CDE900110A460B4600F00CF903B000BD2E
:1006000070B5C1F30A5201F000450024C1F3130193
:1006100040F2FF3341F480119A4201DA002070BDAC
:1006200040F233439A42A2F2334203DC524200F0DA
:1006300088F800E090402C43F1D0404270BDC1F3F7
:100640000A5210B5C1F3130140F2FF3341F4801197
:100650009A4201DA002010BD40F233439A42A2F2DE
:10066000334203DC524200F06CF810BD904010BDE4
:1006700000F0004230F000400AD0C10D01F5607179
:10068000C0F3160042EA0151C20840071143704707
:10069000002001467047000030B5041E71F10004CF
:1006A00004DB4FF00044404264EB0101141E73F17F
:1006B000000405DB1C464FF00043524263EB040389
:1006C0008B4208BF824230BD30B5041E71F1000478
:1006D00004DB4FF00044404264EB0101141E73F14F
:1006E000000405DB1C464FF00043524263EB040359
:1006F000994208BF904230BD30B50B4601460020FC
:100700002022012409E021FA02F59D4205D303FAD3
:1007100002F5491B04FA02F52844151EA2F1010254
:10072000F1DC30BD202A04DB203A00FA02F100207F
:1007300070479140C2F1200320FA03F3194390401F
:100740007047202A04DB203A21FA02F0002170478A
:1007500021FA02F3D040C2F1200291400843194629
:100760007047202A06DBCB17203A41FA02F043EA11
:10077000E07306E041FA02F3D040C2F1200291405A
:100780000843194670472DE9F04791460F468046C9
:100790000446002614F8015B2DB100F005F900684D
:1007A000405DC007F6D12B2D02D02D2D18D0641E30
:1007B0004A463946204600F0FBF827B13968A14285
:1007C00001D1C7F8008071054FF002040BD54042FB
:1007D000002803DD03F0C0FA0460A007BDE8F0873D
:1007E00046F48066E4E70028F8DA03F0B5FA04601E
:1007F0006FF00040F2E710B5141E73F1000408DA40
:10080000401C41F1000192185B411A4301D120F0D4
:10081000010010BD2DE9F04D92469B4611B1B1FA91
:1008200081F202E0B0FA80F220329046FFF77AFFC0
:1008300004460F4640EA0A0041EA0B0153465A4675
:10084000084313D0114653EA010019D0C8F1400201
:100850005046FFF776FF05460E465046594642463B
:10086000FFF760FF084305D0012004E02046394629
:10087000BDE8F08D0020054346EAE0762C4337437F
:100880000A986305E40AA0EB08000022FD0A44EA86
:1008900047540A3002D500200146E9E70105101946
:1008A0006941DDE9084500196941BDE8F04DA2E75D
:1008B0002DE9F04D00231A461B1A8A4103DB002064
:1008C0000146BDE8F08DC1F30A52C1F3130141F4B2
:1008D00080154FF0000BD10702D100186D41521E58
:1008E0000027044640F2FF11384601EB620A3E46FB
:1008F0008046024600204FF48011FFF722FFC21904
:100900007141BB1846EB0100B4EB030C75EB000C16
:1009100004D3E41A65EB000517460E46241908F1C6
:1009200001006D4180463428E3DDF91946EB0600ED
:10093000091BA84103D24FF0FF32134601E0002209
:1009400013461BEB070046EB0A51BDE8F04DFFF7DD
:1009500052BFC1F30A52C1F3130140F2FF3341F415
:1009600080119A4202DA00200146704740F2334378
:100970009A42A2F2334202DC5242FFF7E2BEFFF794
:10098000D1BE0000064C074D06E0E06840F00103D0
:1009900094E8070098471034AC42F6D3FFF7F8FB11
:1009A000C0610008E061000800487047DC5E000894
:1009B0002DE9F05F82460078002715468B460AF144
:1009C0000104B946302801D09DB113E014F8010BA1
:1009D0000127782803D0582801D045B10AE00DB18D
:1009E000102D07D10027102514F8010B02E008256F
:1009F00000E00A250026B0460EE005FB080005FBD6
:100A000006F1012701EB10461FFA80F8B6F5803F8A
:100A100000D3B94614F8010B294600F018F8002855
:100A2000EBDABBF1000F05D00FB1641E00E05446B5
:100A3000CBF80040B9F1000F06D003F08DF9022188
:100A40000160C81EBDE8F09F48EA0640FAE73A2870
:100A500000D2303820F02002412A01D3A2F1370021
:100A6000884201D34FF0FF307047FEE7014800F0A5
:100A700079B90000F8020020014800F073B90000C5
:100A80005803002001680A4BCAB2103AA3FB023295
:100A90001209084B9B5CC365032A04D96FF3090153
:100AA000091D816502E06FF309018165806D704762
:100AB000ABAAAAAA2C5C0008014600208A6A8B69AE
:100AC000002B0FD0B3F5005F1DD08AB3012A30D0C0
:100AD000022A2ED0032A04D1C96A11F0807F00D0E7
:100AE000012070471AB1012A07D0022AF9D1C96A38
:100AF00011F0807FF5D001207047C96AB1F1C07F45
:100B0000FAD1012070475AB1012A0BD0022A07D02E
:100B1000032AF7D1C96AB1F1C07FF3D10120704730
:100B200001207047C96A11F0807FFAD00120704718
:100B3000FFE70120704710B4D0F800C0DCF8004097
:100B400024F48024CCF80040D0F800C0CCF8043065
:100B50008368402B05D0036899600068C26010BCB0
:100B6000704703689A600068C16010BC70477047A6
:100B70002DE9F04780460E4807780024814611E0B1
:100B800003F022F8064600F0CBFB054604E000BF68
:100B900099F80000874209D100F0C2FB401BB04227
:100BA000F6D3641C58F824000028E9D1BDE8F0878A
:100BB0006B0000200148FFF7DBBF00002C00002085
:100BC0000148FFF7D5BF00005C0000200148FFF797
:100BD000CFBF0000000000200148FFF7C9BF0000A0
:100BE0004C0000200148FFF7C3BF00003C0000207C
:100BF00010B504A003F088F8BDE810400448FFF7E2
:100C0000B7BF0000446F6752756E2E2E2E0A00008B
:100C1000180000200148FFF7ABBF000010000020C3
:100C20000148FFF7A5BF0000080000202DE9F041B2
:100C3000184C26784FF496751748FFF799FF8221D4
:100C4000052002F069FB6C21002002F065FB00F03A
:100C500067FB074602E02078864219D100F060FB6E
:100C6000C01BA842F7D37121052002F055FB7E215D
:100C7000002002F051FB00F053FB074602E0207811
:100C8000864205D100F04CFBC01BA842D7D2F6E744
:100C9000BDE8F0816B00002010000020FEE72DE988
:100CA000F0410446A66D00F03BFB054694F8350084
:100CB0000027022806D08020606584F83470012067
:100CC000BDE8F0812068016821F01601016020680C
:100CD000416921F080014161206C08B9A06C20B10C
:100CE0002068016821F0080101602068016821F096
:100CF000010101602068006810F0010F12D000F0BF
:100D00000FFB401B052808D920206065032084F8CC
:100D1000350084F83470BDE8F0812068006810F078
:100D2000010FECD194F85C003F2101FA00F0B060B3
:100D3000012084F8350084F834700020BDE8F0818B
:100D400090F83510022903D08021416501207047B9
:100D5000052180F835100068016821F0010101606B
:100D6000002070472DE9F84304464FF00008CDF805
:100D7000008076484FF416510068B0FBF1F7A56D7E
:100D80002E6894F85C00082101FA00F0304211D07E
:100D90002068026812F0040F0CD0026822F00402EE
:100DA000026094F85C0001FA00F0A860606D40F009
:100DB0000100606594F85C004FF0010909FA00F049
:100DC000304209D02168496911F0800F04D0A86031
:100DD000606D40F00200606594F85C10042088406B
:100DE000304209D02168096811F0020F04D0A860D0
:100DF000606D40F00400606594F85C10102088403D
:100E0000304224D02168096811F0080F1FD0A86073
:100E10002068016811F4802F0DD0006810F4002FB5
:100E200004D0A16C99B12046884710E0216C71B1C3
:100E3000204688470BE0016811F4807F03D10168E8
:100E400021F008010160216C09B12046884794F81F
:100E50005C1020208840304251D02168096811F090
:100E6000100F4CD0A86094F8350005280DD02068EC
:100E7000016811F4802F32D0006810F4002F29D0BF
:100E8000E16B59B32046884739E02068016821F0BA
:100E9000160101602068416921F080014161206CE8
:100EA00008B9A06C20B12068016821F00801016038
:100EB00094F85C003F2101FA00F0A86084F83590B6
:100EC00084F83480216D00293ED001B02046BDE871
:100ED000F0430847616C09B1204688470FE001687C
:100EE00011F4807F07D1016821F01001016084F8BE
:100EF000359084F83480E16B09B120468847606DF5
:100F0000002821D0606D10F0010F15D0052084F865
:100F100035002068016821F0010101600098401C43
:100F20000090B84204D82068006810F0010FF5D195
:100F300084F8359084F83480E16C002904D001B045
:100F40002046BDE8F0430847BDE8F8839400002040
:100F50002DE9F041044600F0E3F90546DCB102203A
:100F600084F83500002684F834602068016821F098
:100F7000010101602068006810F0010F13D000F03B
:100F8000CFF9401B052809D920206065032084F88B
:100F90003500BDE8F0810120BDE8F08120680068DF
:100FA00010F0010FEBD121680868234A1040A368B4
:100FB0006268D4F810C01A43E36843EA0C031A438A
:100FC00063691A43A3691A43E3691A43236A1A43FC
:100FD0001043626A042A03D1236BE26A1A43104366
:100FE00008602068406920F00701606A40EA010556
:100FF000012704280ED1A06A0543E06A50B12046BB
:10100000FFF75AFD30B14020606584F8357001204B
:10101000BDE8F081206845612046FFF733FD94F874
:101020005C103F2202FA01F18160666584F8357038
:101030000020BDE8F08100003F8010F070B504464C
:101040000025A66D94F8340001280DD0012084F805
:10105000340094F835C00020BCF1010F06D084F8AC
:1010600034000225284670BD022070BD4FF0020CEE
:1010700084F835C060652046FFF75DFD94F85C009C
:101080003F2101FA00F0B0602068016841F01601CC
:101090000160206C20B12068016841F00801016006
:1010A0002068016841F001010160DBE770B504468A
:1010B00000F036F90546B4F1FF3F02D0044800784D
:1010C000044400F02DF9401BA042FAD370BD00008B
:1010D000880000202DE9F84F0022DFF818A2DFF881
:1010E00010924FF0010E03274FF00F08AAF1040BE6
:1010F0000EFA02FC0B6803EA0C0363457DD10C7900
:1011000004F00304012C01D0022C14D18568540092
:1011100007FA04F6B543CE6806FA04F42C4384605B
:10112000446824EA0C0C0C79C4F30014944044EA9B
:101130000C0CC0F804C0D1F804C037EA0C0C0CD079
:10114000C4684FEA420C07FA0CF5AC438D6805FA07
:101150000CFC4CEA040CC0F80CC091F804C00CF074
:10116000030CBCF1020F12D14FEAD20C00EB8C043D
:10117000256A4FEA427C4FEADC6C08FA0CF6B5436C
:101180000E6906FA0CFC4CEA050CC4F820C0046891
:101190004FEA420C07FA0CF5AC430D7905F0030554
:1011A00005FA0CFC4CEA040CC0F800C0D1F804C0ED
:1011B0001CF4403F7DD0D9F800C04CF4804CC9F8F5
:1011C00000C0D9F800C00CF4804CCDF800C022F06B
:1011D000030C0CF1804505F59835D5F808C894073F
:1011E000240F08FA04F62CEA0606A0F1804CBCF5A0
:1011F000003C64D0A0F1804C00E05AE0BCF5013C1A
:1012000060D0A0F1804CBCF5023C5ED0A0F1804CD7
:10121000BCF5033C5CD0A0F1804CBCF5043C5AD03A
:10122000A0F1804CBCF5053C58D0A0F1804CBCF539
:10123000063C56D0A0F1804CBCF5073C54D04FF092
:10124000080C0CFA04FC4CEA060CC5F808C8DAF8DD
:1012500000C02CEA030C4C6814F4801F01D04CEA47
:10126000030CCAF800C0244CD4F800C02CEA030CCC
:101270004D6815F4001F01D04CEA030CC4F800C0FF
:10128000DBF800C02CEA030C4C6814F4003F01D0DA
:101290004CEA030CCBF800C0184CD4F800C02CEA80
:1012A000030C4D6815F4803F01D04CEA030CC4F8E0
:1012B00000C0521C102AFFF41BAFBDE8F88F4FF09E
:1012C000000CBEE74FF0010CBBE74FF0020CB8E793
:1012D0004FF0030CB5E74FF0040CB2E74FF0050CEC
:1012E000AFE74FF0060CACE74FF0070CA9E70000A2
:1012F00044380240083C01400C3C0140003C0140A5
:10130000426921EA0203114043EA014181617047C9
:10131000002A01D081617047090481617047000093
:1013200001488068704700008800002070B50446BE
:10133000002C04D094F83D00002510B106E00120F7
:1013400070BD84F83C50204600F0D4FA242084F884
:101350003D002068016821F00101016020680168FA
:1013600041F4004101602068016821F400410160FE
:1013700000F0B0FC544B6168994203D8534988424D
:1013800003D304E05249884201D2012070BD514983
:10139000B0FBF1F12268D2F804C02CF03F0C4CEA0B
:1013A000010CC2F804C062689A4201D84A1C07E0E6
:1013B0004FF4967251434FF47A72B1FBF2F14A1C2A
:1013C0002168D1F820C02CF03F0C42EA0C020A62DE
:1013D0006168994210D84900401EB0FBF1F2521CDE
:1013E000C2F30B02042A01D2042026E0B0FBF1F084
:1013F000401CC0F30B0020E0A268002A50D001EB93
:10140000C10303EB0113A0F1010CBCFBF3F35B1C64
:1014100043F480431B051B0D4AD0002A4AD001EB40
:10142000C10202EB0111401EB0FBF1F0401CC0F301
:101430000B0040F4804040F400402168CA6922F06B
:10144000FF0222F44F421043C861216AE069014360
:101450002068026822F0C00211430160E16820693F
:1014600001432068826822F0FF0222F40342114304
:101470008160A169606901432068C26822F0FF02AF
:101480001143C1602068016841F0010101602564D9
:10149000202084F83D00256384F83E50002070BD74
:1014A00001EB4103A0F1010CBCFBF3F35B1CB1E7C2
:1014B0000120C2E701EB4101401EB0FBF1F0401CEE
:1014C000C0F30B00B7E70000A086010080841E0077
:1014D00000093D0040420F002DE9F84F04468A46BE
:1014E00017469946DDF82880FFF71AFF054694F85D
:1014F0003D00202802D00220BDE8F88F19230122E8
:10150000A1492046009501F0B8FB10B10220BDE8CA
:10151000F88F94F83C00012808D0012084F83C00A2
:101520002068016811F0010F03D006E00220BDE839
:10153000F88F016841F0010101602068016821F421
:1015400000610160222084F83D00102084F83E00F4
:10155000002626646762A4F82A90608D20858B4857
:10156000E0622B4642465146204601F067FA10B130
:101570000120BDE8F88F208D28B301282CD0022847
:1015800038D02068016841F48061016020684169B9
:1015900080690090208D002800F0EB807C4F208D2A
:1015A000032800F2B380012833D0022848D04346F4
:1015B000002239462046009501F05FFB002869D0E3
:1015C0000120BDE8F88F20684169816900910168B8
:1015D00041F400710160DDE72068016821F4806159
:1015E00001602068416981690091016841F40071DE
:1015F0000160CFE72068016821F480610160206804
:10160000016841F4006101602068416980690090CF
:10161000C0E72A464146204601F01AFC10B10120DD
:10162000BDE8F88F20680069616A0870606A401C34
:101630006062208D401E2085608D401E608594E094
:101640004346002239462046009501F016FB10B1B2
:101650000120BDE8F88F2068016841F40071016045
:1016600020680069616A0870606A401C6062218DB0
:10167000491E2185618D491E6185216809690170B6
:10168000606A401C6062208D401E2085608D401E77
:1016900060856AE02068016821F48061016020684B
:1016A0000069616A0870606A401C6062208D401E9B
:1016B0002085608D401E60854346002239462046C5
:1016C000009501F0DAFA10B10120BDE8F88F20682A
:1016D000016841F40071016020680069616A087066
:1016E000606A401C6062218D491E2185618D491E02
:1016F0006185216809690170606A401C6062208D03
:10170000401E2085608D401E60852EE02A464146A1
:10171000204601F09DFB10B10120BDE8F88F206844
:101720000069616A0870606A401C6062208D401E1A
:1017300081B22185608D401E60852068426912F06B
:10174000040F12D0032903D1016821F480610160E4
:1017500020680069616A0870606A401C6062208DC0
:10176000401E2085608D401E6085208D00287FF4FE
:1017700016AF202084F83D0084F83E6084F83C6079
:101780000020BDE8F88F0000020010000000FFFFFD
:10179000040001002DE9F84F04468A469046994618
:1017A0000A9FFFF7BDFD064694F83D00202802D0B1
:1017B0000220BDE8F88F192301224C4920460096EB
:1017C00001F05BFA10B10220BDE8F88F94F83C00FC
:1017D000012808D0012084F83C002068016811F03D
:1017E000010F03D006E00220BDE8F88F016841F048
:1017F000010101602068016821F40061016021207D
:1018000084F83D00102084F83E0000252564C4F8CB
:101810002480A4F82A90608D20853548E062334604
:101820003A465146204601F09BF910B10120BDE82F
:10183000F88F2068416980690090208D002846D08B
:1018400032463946204601F046FB50B1206C042850
:1018500004D12068016841F4007101600120BDE8F5
:10186000F88F606A216800780861606A00F1010CF5
:10187000C4F824C0608D401E6085208D401E80B25B
:1018800020852268516911F0040F0CD058B19CF8E2
:1018900000001061606A401C6062608D401E6085BF
:1018A000208D401E208532463946204601F0B2F98F
:1018B00050B1206C042804D12068016841F4007103
:1018C00001600120BDE8F88F208D0028B8D1206884
:1018D000016841F400710160202084F83D0084F823
:1018E0003E5084F83C500020BDE8F88F0200100004
:1018F0000000FFFF10B586B0044614216846FEF7CD
:1019000099FC1349206888421FD11248016841F0B0
:10191000200101600068122100F0200005900320E2
:10192000CDE900010121CDE90210042004906946AF
:101930000948FFF7CFFB07481030016841F48001E8
:101940000160006800F48000059006B010BD000042
:1019500000580040303802400014024002488168BC
:1019600002781144816070478800002010B50B4850
:10197000016841F400710160016841F48061016017
:10198000016841F480710160032000F0AFF800208D
:1019900000F006F800F050F8002010BD003C0240B6
:1019A00030B505461F4887B00024016841F020018A
:1019B0000160006806A900F02000009001A800F076
:1019C00065F90498A8B100F085F940001649174A56
:1019D000B0FBF1F11648491E026040F2E732C0E95F
:1019E0000324C0E90114846100F00DFC040003D05D
:1019F00015E000F06FF9E9E70D4800F033FC040052
:101A00000DD1372000F030F8102D07D200222946E2
:101A1000372000F037F80748056000E0012407B0E0
:101A2000204630BD4038024040420F0000140040C4
:101A3000B80300208C0000200A4808B5016841F472
:101A400080410160006800F4804000900548001F5C
:101A5000016841F080510160006800F08050009002
:101A600008BD00004438024000280ADB00F01F01D6
:101A7000012202FA01F14009800000F1E020C0F8E3
:101A80000011704710B4184B1B68C3F30223C3F155
:101A9000070CBCF1040F01D94FF0040C1C1D072CDE
:101AA00001D2002300E0DB1E012404FA0CFCACF19F
:101AB000010C0CEA0101994004FA03F35B1E1A4081
:101AC0001143002806DB00F1E020090180F8001432
:101AD00010BC704700F00F0000F1E020090180F811
:101AE000141D10BC704700000CED00E000F0070072
:101AF000064A11684FF6FF03194041EA002040F002
:101B0000FD7040F080601060704700000CED00E058
:101B10002DE9F04704460D46002C13D0DFF8549110
:101B2000D9F80000EFB200F00700A8420DD289F802
:101B30000070D9F8000000F00700A84205D001208D
:101B4000BDE8F0870120BDE8F08720684A4E10F01C
:101B5000020F14D010F0040F03D0306840F4E050AE
:101B60003060207810F0080F03D0306840F46040F7
:101B700030603068A16820F0F000084330602078C1
:101B800010F0010F3ED060683C49012808D00228BF
:101B90000DD003280BD0096811F0020F28D00AE0FD
:101BA000096811F4003F06D10120BDE8F0870968FB
:101BB00011F0007F19D0316821F003010843306033
:101BC000FFF7AEFB80463068616800F00C00B0EBB8
:101BD000810F17D041F2883AFFF7A2FBA0EB080073
:101BE000504508D90320BDE8F0870120BDE8F08703
:101BF0000120BDE8F0873068616800F00C00B0EBB0
:101C0000810FE9D1D9F8000000F00700A8420AD9F5
:101C100089F80070D9F8000000F00700A84202D04F
:101C20000120BDE8F087207810F0040F05D030685F
:101C3000E16820F4E05008433060207810F0080F8D
:101C400006D03068216920F4604040EAC10030606D
:101C500000F060F831680A4AC1F30311515CC840D2
:101C60000849086008480068FFF79AFE0020BDE8B0
:101C7000F0870000003C0240083802400038024073
:101C8000345C0008940000208C0000200F220260C9
:101C90000B4A136803F003034360136803F0F00377
:101CA0008360136803F4E053C360126802F4604277
:101CB000D20802610348006800F00700086070471E
:101CC00008380240003C02400148006870470000AC
:101CD0009400002000B5FFF7F7FF04490968044AA3
:101CE000C1F38221515CC84000BD000008380240A9
:101CF000445C000800B5FFF7E7FF04490968044A9F
:101D0000C1F34231515CC84000BD000008380240B8
:101D1000445C000810B51748006810F00C01164824
:101D200016D04310042912D0082911D1134C216870
:101D300001F03F02216811F4800F0AD02068C0F33F
:101D40008810A0FB03010023FEF73CFA09E01846C7
:101D500010BD21680023C1F38811A1FB0001FEF72B
:101D600031FA2168C1F30141491C4900B0FBF1F08F
:101D700010BD0000083802400024F400043802407E
:101D80002DE9F84F0446002C12D02078FB4E10F0BD
:101D9000010FA6F1040563D0301D016801F00C01AC
:101DA00004290CD0006800F00C00082803D010E0D3
:101DB0000120BDE8F88F306810F4800F09D0286842
:101DC00010F4003F4CD06068002849D10120BDE8E4
:101DD000F88F6068B0F5803F14D0B0F5A02F16D012
:101DE000286820F480302860286820F4802028604B
:101DF000606810B3FFF794FA0746286810F4003FB4
:101E00000ED02DE0286840F480302860F0E7286884
:101E100040F480202860286840F480302860E7E79C
:101E2000FFF77EFAC01B642802D90320BDE8F88FB3
:101E3000286810F4003FF3D012E0FFF771FA07466C
:101E4000286810F4003F0BD0FFF76AFAC01B642823
:101E500002D90320BDE8F88F286810F4003FF3D1C1
:101E60002078C74F10F0020F4FF0000957D0C54837
:101E7000016811F00C0F14D0006800F00C00082865
:101E800003D1306810F4800F0BD0E06880B30120DC
:101E90003860FFF745FA8046286810F0020F12D02C
:101EA0001EE0286810F0020F05D0E068012802D07B
:101EB0000120BDE8F88F2868216920F0F80040EA89
:101EC000C10028602BE0FFF72BFAA0EB08000228E6
:101ED00002D90320BDE8F88F286810F0020FF2D075
:101EE0002868216920F0F80040EAC100286016E067
:101EF000FFE7C7F80090FFF713FA8046286810F054
:101F0000020F0CD0FFF70CFAA0EB0800022802D950
:101F10000320BDE8F88F286810F0020FF2D1207876
:101F200010F0080F35D09848DFF860A26169C1B1A0
:101F300001210160FFF7F4F98046DAF8000010F0A3
:101F4000020F26D1FFF7ECF9A0EB0800022802D916
:101F50000320BDE8F88FDAF8000010F0020FF1D08E
:101F600017E0C0F80090FFF7DBF98046DAF80000D0
:101F700010F0020F0DD0FFF7D3F9A0EB08000228F4
:101F800002D90320BDE8F88FDAF8000010F0020F44
:101F9000F1D1207810F0040F71D04FF000087C4888
:101FA000006810F0805F0AD17948016841F08051E3
:101FB0000160006800F0805000904FF00108DFF8E9
:101FC000D4B1DBF8000010F4807F1BD1DBF80000F7
:101FD00040F48070CBF80000FFF7A2F98246DBF8EE
:101FE000000010F4807F0DD1FFF79AF9A0EB0A00F2
:101FF000022802D90320BDE8F88FDBF8000010F4B6
:10200000807FF1D0A068DFF890B1012818D00528B2
:102010001DD0DBF8000020F00100CBF80000DBF859
:10202000000020F00400CBF80000A06840B3FFF7E8
:1020300077F98246DBF8000010F0020F14D03EE082
:10204000DBF8000040F00100CBF80000EDE7DBF822
:10205000000040F00400CBF80000DBF8000040F086
:102060000100CBF80000E0E7FFF75AF9A0EB0A0106
:1020700041F28830814204D90320BDE8F88F26E080
:1020800005E0DBF8000010F0020FEDD017E0FFF7DD
:1020900047F98246DBF8000010F0020F0FD0FFF77F
:1020A0003FF9A0EB0A0141F28830814202D90320B6
:1020B000BDE8F88FDBF8000010F0020FEFD1B8F1A7
:1020C000010F04D13248016821F080510160A069FC
:1020D000F0B32C4909684FF0FF3801F00C010829D2
:1020E00066D0022810D0C7F86090FFF719F90446AF
:1020F000286810F0007F2BD0FFF712F9001B022890
:1021000051D90320BDE8F88FC7F86090FFF708F9B0
:102110008146286810F0007F0CD0FFF701F9A0EB92
:102120000900022802D90320BDE8F88F286810F0C2
:10213000007FF2D1216AE069A26A0843616A08EB74
:102140005202890141EA0241084394F82C1000E050
:1021500055E040EA0160306001203866FFF7E0F8A2
:102160000446286810F0007F49D1FFF7D9F8001B1A
:10217000022813D90320BDE8F88F0000043802407C
:102180000000474208380240800E4742743802403F
:10219000403802400070004070380240286810F05B
:1021A000007FE2D02BE0286810F0007FA4D126E069
:1021B000012822D03068E26900F4800191421AD1EE
:1021C000226A00F03F01914215D147F6C071626A60
:1021D0000140B1EB821F0ED1A26A00F4403108EB3E
:1021E0005202B1EB024F06D194F82C1000F070604F
:1021F000B0EB016F03D00120BDE70120BBE7002059
:10220000B9E77047704710B50446002C03D094F826
:102210003D0010B107E0012010BD002084F83C0013
:10222000204600F01EF8022084F83D00211D2068A1
:1022300001F0D2F9012084F8460084F83E0084F8C9
:102240003F0084F8400084F8410084F8420084F89C
:10225000430084F8440084F8450084F83D000020E1
:1022600010BD704790F83D10012901D00120704742
:10227000022180F83D100168CA6842F00102CA607C
:102280000068A0F18041B1F5803126D0B0F1804FD7
:1022900023D0A0F18041B1F580611ED0A0F1804132
:1022A000B1F5006119D0A0F18041B1F5406114D0C1
:1022B000A0F18041B1F582310FD0A0F18041B1F59C
:1022C000A0310AD0A0F18041B1F5C05105D001681C
:1022D00041F00101016000207047816801F00701B1
:1022E0000629F8D0016841F001010160F3E7704769
:1022F0002DE9F04104462068C56806694FF00007E3
:1023000016F0020F16D015F0020F13D0F91E01615E
:10231000012020772068806910F0030F03D0204649
:10232000FFF7E5FF05E0204600F090F8204600F0BA
:102330008EF8277716F0040F18D015F0040F15D07B
:1023400021686FF00400086102202077206880690E
:1023500010F4407F03D02046FFF7C9FF05E0204678
:1023600000F074F8204600F072F8277716F0080F96
:1023700018D015F0080F15D021686FF0080008611B
:10238000042020772068C06910F0030F03D0204696
:10239000FFF7ADFF05E0204600F058F8204600F0BA
:1023A00056F8277716F0100F18D015F0100F15D02B
:1023B00021686FF010000861082020772068C0694C
:1023C00010F4407F03D02046FFF791FF05E0204640
:1023D00000F03CF8204600F03AF8277716F0010F9D
:1023E00009D015F0010F06D021686FF001000861D7
:1023F000204600F02DF816F0800F09D015F0800F60
:1024000006D021686FF0800008612046FFF7F9FED2
:1024100016F0400F09D015F0400F06D021686FF07C
:1024200040000861204600F01DF816F0200F0BD088
:1024300015F0200F08D021686FF0200008612046B9
:10244000BDE8F041FFF7DEBEBDE8F08170477047A0
:1024500000680349884201D1FFF780BA7047000045
:10246000001400407047704710B50446206840696A
:10247000C0F3C01094F84110212911D180B1206817
:10248000143050E8001F21F0800140E80012002ABB
:10249000F5D1A06B08B1FEF702FC204601F0D0F99F
:1024A00020684069C0F3801094F84210222911D1AD
:1024B00080B12068143050E8001F21F0400140E84E
:1024C0000012002AF5D1E06B08B1FEF7E8FB2046C8
:1024D00001F082F9002010BD70470000F8B50446F5
:1024E00022681068D168536900F00F0CBCF1000F2E
:1024F0000AD110F0200F07D011F0200F04D0204691
:10250000BDE8F84001F0AAB90025BCF1000F75D074
:1025100003F0010C01F490765CEA06066ED010F030
:10252000010F06D011F4807F03D0626C42F00102EB
:10253000626410F0040F06D013F0010F03D0626C38
:1025400042F00202626410F0020F06D013F0010F95
:1025500003D0626C42F00402626410F0080F08D0ED
:1025600001F0200252EA0C0203D0626C42F0080231
:102570006264626C002A35D010F0200F05D011F093
:10258000200F02D0204601F069F920684069C0F3AD
:102590008010616C11F0080F00D148B3204601F0A3
:1025A0001BF92068406910F0400F1CD020681430DF
:1025B00050E8001F21F0400140E80012002AF5D148
:1025C000E06B60B15E490165E06BFEF7B9FB002886
:1025D00008D0E06B016D01B0BDE8F040084720462F
:1025E000FFF77AFFF8BD2046FFF776FFF8BD05E05C
:1025F000FFE72046FFF770FF6564F8BD236B012BF2
:102600007ED110F0100F7BD011F0100F78D0106831
:102610005068009050694FF0200310F0400F4FF0C9
:10262000020644D0E16B0868406880B20028E4D01C
:10263000A28D8242E1D9E085C869B0F5807F2DD0B6
:1026400020680C3050E8001F21F4807140E800122F
:10265000002AF5D12068143050E8001F21F0010154
:1026600040E80012002AF5D12068143050E8001F1D
:1026700021F0400140E80012002AF5D184F84230F0
:10268000256320680C3050E8001F21F0100140E85D
:102690000012002AF5D1E06BFEF701FB6663A08D06
:1026A000E18D401A81B22046FFF7DDFEF8BDA08D16
:1026B000E18D401A81B2E08D0028F7D00029F5D0D5
:1026C00020680C3050E8002F22F4907240E8002C73
:1026D000BCF1000FF4D12068143050E8002F22F034
:1026E000010240E8002CBCF1000FF4D184F8423024
:1026F000256320680C3050E8002F22F0100200E023
:1027000008E040E80023002BF3D166632046FFF782
:10271000AAFEF8BD10F0800F07D011F0800F04D092
:102720002046BDE8F84001F0CDB910F0400FF0D0E0
:1027300011F0400FEDD02046BDE8F84001F073B82D
:10274000D136000870B50446002C04D094F841003E
:10275000002510B106E0012070BD84F840502046ED
:1027600000F024F8242084F841002068C16821F496
:102770000051C160204601F0D7F82068016921F4BA
:10278000904101612068416921F02A01416120687E
:10279000C16841F40051C1606564202084F84100A3
:1027A00084F842006563002070BD00002DE9F0430D
:1027B00087B0064614216846FDF73CFD5249524851
:1027C000504DD6F800C000241038022203234F05D4
:1027D0004FF48069AC4534D10D6845F400250D6097
:1027E000096801F400210591016841F004010160CC
:1027F0000068694600F00400059098028DE8150015
:102800000820CDE903304148FEF764FC414D4048C3
:102810002860C5E90174C5E903496C61AC61EC61EC
:102820002C6228466C62FEF793FB08B1FEF736FA7D
:10283000F563002205213420AE63FFF723F934202D
:102840005DE0DFF8D4800725C4451ED12E49091D5F
:102850000E6846F010060E60096801F0100105913F
:10286000016841F0010101600068694600F0010063
:1028700005904FF4C0608DE81500CDE90335274879
:10288000FEF728FC07B0BDE8F083DFF89480C4456C
:10289000F8D1D1F800C04CF4003CC1F800C0096880
:1028A00001F400310591016841F008010160006800
:1028B000694600F00800059060208DE81500CDE91C
:1028C00003351848FEF706FC1148174D48302860BC
:1028D000C5E90174C5E903496C61AC61EC612C6226
:1028E00028466C62FEF734FB08B1FEF7D7F9F563B2
:1028F000002205212620AE63FFF7C4F82620FFF74B
:10290000B3F8BFE7004C00404038024000080240E6
:1029100040600240F8020020001001400000024028
:1029200000440040000C02405803002090F8423060
:10293000202B01D00220704721B11AB1002303637C
:1029400001F070B801207047704770472DE9F843D7
:1029500004460E4615461F4694F84100202802D032
:102960000220BDE8F8837EB175B1002060642120AB
:1029700084F84100FEF7D4FC8146A584E584A06874
:10298000B0F5805F03D004E00120BDE8F883206942
:1029900090B135460026E08C4FF02008C8B14B4678
:1029A000002280212046009701F0BBF830B184F866
:1029B00041800320BDE8F8830025ECE7B5B121682C
:1029C000287848606D1CE08C401EE084E08C002874
:1029D000E5D14B46002240212046009701F0A1F8A6
:1029E00058B184F841800320BDE8F883308821681D
:1029F000C0F308004860B61CE5E784F84180002079
:102A0000BDE8F8837047FEE701684A6912F4806FF9
:102A100011D06FF480624A6100210163202280F8A6
:102A20003D2080F83E10026C42F00402026480F8FF
:102A30003C10012070470020704700002DE9F84F3E
:102A400004460D4691461E46E06A21680A6842F433
:102A500080620A60082808D0012806D010F5803F5F
:102A600003D0206B112806D00AE02068016841F4E9
:102A70008071016004E02068016841F480710160A8
:102A80004B4600224FF001112046009600F0F5F869
:102A90004FF4007848B12068006810F4807F01D0BE
:102AA000C4F840800320BDE8F88F2069DFF8ACA0AF
:102AB000B0F5804F11D0216805F44077F02040EA4E
:102AC000D710086133464A460AF10601204600F055
:102AD00049F940B10120BDE8F88F2168E8B240F023
:102AE000010008612CE02168E8B2086133464A46DB
:102AF0005146204600F036F910B10120BDE8F88FAC
:102B00002068416981690091016841F48071016028
:102B10004B4600224FF001112046009600F0ADF820
:102B200048B12068006810F4807F01D0C4F840806C
:102B30000320BDE8F88F2168F12040EAD710086132
:102B400033464A465146204600F00CF910B10120A8
:102B5000BDE8F88F0020BDE8F88F000002000100FA
:102B6000F8B504460D4617461E46E06A082808D008
:102B7000012806D010F5803F03D0206B122806D024
:102B80000AE02068016841F48071016004E0206877
:102B9000016841F4807101603B4600224FF0011151
:102BA0002046009600F069F848B12068006810F4EB
:102BB000807F02D04FF4007020640320F8BD2069AC
:102BC000B0F5804F0FD005F44070F02141EAD010ED
:102BD0002168086133463A460C49204600F0C2F8A5
:102BE00030B10120F8BD216805F0FE00086102E067
:102BF0002168E8B2086133463A460549204600F0AC
:102C0000B1F808B10120F8BD0020F8BD08000100AE
:102C10000200010070B504460D4616462068406962
:102C200010F0040F18D12046FFF7EEFE08B1012086
:102C300070BDB5F1FF3F0AD0FEF772FB801BA842C2
:102C400000D825B92068406910F0040F06D020682C
:102C5000406910F0040FE6D0002070BD0020206312
:102C6000202184F83D1084F83E00216C41F02001C1
:102C7000216484F83C00012070BD2DE9F047044632
:102C8000DDF820900D4617461E46C5F3074820681C
:102C9000B8F1010F13D0806925EA00000004000C90
:102CA00017D00020B8424DD1B6F1FF3F3DD0FEF71E
:102CB00037FBA0EB0900B0420DD866B135E04069A2
:102CC00025EA00000004000C01D00020EAE7012002
:102CD000E8E70120E6E7B8F1010F19D02068806924
:102CE00025EA00000004000C1DD00020B8421CD1D1
:102CF00000202063202184F83D1084F83E00216CE0
:102D000041F02001216484F83C000120BDE8F087F7
:102D10002068406925EA00000004000C01D0002072
:102D2000E4E70120E2E70120E0E7B8F1010F0CD071
:102D30002068806925EA00000004000C10D0002003
:102D4000B842B1D00020BDE8F0872068406925EA8C
:102D500000000004000C01D00020F1E70120EFE7A3
:102D60000120EDE72DE9F04704460D46164698464A
:102D7000C5F307472068012F26D0806925EA0000A7
:102D80000004000C59D04FF000094FF0200A2068D1
:102D9000406910F4806F1ED02068016841F4007112
:102DA000016021686FF480604861C4F8309084F855
:102DB0003DA084F83E90206C40F00400206484F82C
:102DC0003C900120BDE8F087406925EA000000043E
:102DD000000C32D0D7E7B6F1FF3F25D0FEF7A0FABE
:102DE000A0EB0800B04200D8F6B9012F15D020683A
:102DF000806925EA00000004000C15D0C4F830906A
:102E000084F83DA084F83E90206C40F020002064BF
:102E100084F83C900120BDE8F0872068406925EAED
:102E200000000004000CE9D1012F09D0206880695E
:102E300025EA00000004000CA9D10020BDE8F087BD
:102E40002068406925EA00000004000C9FD1F4E7E7
:102E50002DE9F04104460D4616462068406910F001
:102E6000400F27D100274FF020082068406910F05C
:102E7000100F0FD020686FF010014161276384F8B4
:102E80003D8084F83E70206C206484F83C70012002
:102E9000BDE8F081FEF744FA801BA84200D825B9AE
:102EA0002068406910F0400F07D02068406910F09A
:102EB000400FDAD00020BDE8F081276384F83D8020
:102EC00084F83E70206C40F02000206484F83C7050
:102ED0000120BDE8F08170B504460D461646206815
:102EE000406910F0800F18D12046FFF78DFD08B122
:102EF000012070BDB5F1FF3F0AD0FEF711FA801B2B
:102F0000A84200D825B92068406910F0800F06D08B
:102F10002068406910F0800FE6D0002070BD0020CE
:102F20002063202184F83D1084F83E00216C41F09C
:102F30002001216484F83C00012070BD2DE9F0439C
:102F40002DED108B83B00C460546B0EE41BAF0EE85
:102F500061BAB0EE409AF0EE609A9FED93EB9FED70
:102F600094FB9FED95DB9FED96AB53EC192B51EC49
:102F7000190BFDF746FA8946074653EC1B2B51EC1B
:102F80001B0BFDF73EFA884648EC100B49EC117B11
:102F9000064653EC102B51EC110BFDF78BF953EC5B
:102FA0001E2BFDF728FA53EC1F2BFDF724FA9FED9B
:102FB000861B53EC112BFDF796FA41EC100B00F039
:102FC000CFFE53EC1A2B51EC100BFDF717FA41EC26
:102FD0001C0BB0EE4C0AF0EE6C0A01F0D9F99FED33
:102FE0007C1B51EC100B53EC112BFDF70AFA9FEDF3
:102FF0007A1B53EC112BFDF701FA41EC100B01F099
:1030000035FAB0EE408AF0EE608A8DED00CB53ECDD
:10301000182B73A000F078FE9FED760B51EC180B87
:1030200053EC102BFDF750FB08D39FED740B51ECC4
:10303000180B53EC102BFDF72FFB06D24FF0FF308F
:1030400003B0BDEC108BBDE8F0839FED6E0B51EC2F
:10305000180B53EC102BFDF7D4F941EC1C0B53EC7F
:10306000182B51EC180BFDF7CCF99FED681B53ECB6
:10307000112BFDF71FF99FED671B53EC112BFDF78B
:10308000BAF953EC1C2BFDF72EFA41EC100B00F0B3
:1030900067FE53EC1D2B51EC100BFDF7B2F953EC0E
:1030A0001A2BFDF720FA48EC106B49EC117BC4E9B0
:1030B000000153EC102B51EC110BFDF7FBF841EC28
:1030C000100B01F0D3F99FED551B51EC100B53EC95
:1030D000112BFDF796F949EC107B41EC1C0B48ECE9
:1030E000186B53EC1E2B51EC100BFDF7E3F853EC6F
:1030F000182BFDF7DFF853EC1F2BFDF77CF953EC91
:103100001C2BFDF7F0F941EC100B00F029FEB0EE9E
:10311000408AF0EE608A9FED43CB51EC190B53ECE3
:103120001C2BFDF7D1FA0CD253EC192B51EC1B0BD5
:10313000FDF7D9F941EC100B00F0BEFF01F08CF95E
:103140001AE053EC1C2B51EC190BFDF7A5FA16D223
:1031500053EC192B51EC1B0BFDF7C5F941EC100B8F
:1031600000F0AAFF01F078F953EC1A2B51EC100B88
:10317000FDF744F941EC100B53EC182B03E053EC32
:10318000182B9FED2A0B51EC100BFDF734F953EC83
:103190001D2BFDF736F953EC1A2BFDF7A4F9C5E901
:1031A000000100204CE70000000000000000B940D2
:1031B000000000000081B040000000000080664078
:1031C00000000060B81E0940000000000050C4C0AC
:1031D000000000000000A940000000000090BA407C
:1031E0006C783D252E32662C61323D252E32660AE2
:1031F00000000000000000000080564000000000B9
:1032000000004E400000000000003E4000000000B2
:1032100000206C400000000000F9B54000000000F4
:10322000000064400000000000000000000000609A
:10323000DA1BF93FF0B587B014216846FCF7FAFFB6
:1032400029480024016841F010010160016801F083
:1032500010010591016841F020010160016801F051
:1032600020010591016841F080010160016801F0D1
:1032700080010591016841F001010160016801F0E0
:1032800001010591016841F004010160016801F04C
:1032900004010591016841F0080101600068134EC6
:1032A00000F008000590002220213046FEF730F89B
:1032B0000F4F002207213846FEF72AF82020009001
:1032C0000125CDE90154694630460394FDF702FF1C
:1032D00007200090CDE90154694638460394FDF774
:1032E000F9FE07B0F0BD0000303802400010024087
:1032F00000000240FEE770471CB502238DF8040071
:1033000064208DF80510009001AA80210148FEF785
:1033100041FA1CBD0401002010B50446B42917D899
:103320000846FDF760F99FED0B1B53EC112BFDF7E1
:1033300068F89FED0A1B53EC112BFCF7BBFFFDF760
:103340007EF902462046BDE81040002100F07AB820
:1033500010BD00006891ED7C3F3502400000000088
:103360000080594030B5DFED2F0A2DED028B20EEA5
:10337000200A83B09FED2C8B10EE100AFDF778F930
:1033800041EC100B51EC180B53EC102BFDF7ABF884
:103390009FED271B53EC112BFDF72DF841EC180B7B
:1033A00001210020FFF7A8FF9FED230B51EC180B24
:1033B00053EC102BFCF77EFFFDF741F9C5B200205E
:1033C0008DF804008DF808003224012302AA802120
:1033D0001B480094FEF7DEF9012301AA802118485A
:1033E0000094FEF779F89DF8044004F07F0040F067
:1033F00010010020FFF780FF2946FE20FFF77CFF29
:1034000021460020FFF778FF0520FDF74FFE03B0AF
:1034100044F0A101BDEC028B0020BDE83040FFF775
:103420006BBF000048E17A3F0000000084D7B7403E
:10343000000000000000F03F000000000000E03F3E
:10344000040100200EB5062303EB80008DF8040074
:103450008DF80510080A8DF80600100A8DF808008E
:1034600064208DF807200090052301AA80210248DE
:10347000FEF790F90EBD0000040100207047704770
:1034800010B51446012813D0022818D0C2F1B40494
:1034900003281CD0042823D1C1F1B40081B202203A
:1034A000FFF73AFFA1B20620BDE81040FFF734BF96
:1034B00089B20020FFF730FFA1B20520F4E789B2FE
:1034C0000120FFF729FF0A34A1B20420ECE7C1F183
:1034D000AF0081B20320FFF71FFFA1B20720E3E78F
:1034E00010BD704730B593B030216846FCF7A2FE9E
:1034F00014210CA8FCF79EFE1C480025016841F031
:1035000080510160006800F08050119018480168F7
:1035100041F4804101600068022400F48040119071
:1035200001200090000401908001CDE9064008AA26
:103530000420A82182E813000B906846FEF720FCC7
:1035400000B1FEE70CA90F2081E831004FF4A05034
:103550000F904FF48050109005210CA8FEF7D8FA78
:10356000002800D0FEE713B030BD00004038024014
:10357000007000400F48016841F4700101600E487E
:10358000016841F0010101600C4A002111600268EC
:1035900022F4102222F080720260031D084A1A6091
:1035A000026822F48022026006480160064958063B
:1035B0000860704788ED00E000380240083802409B
:1035C000103000240C38024008ED00E00148FEF7FE
:1035D0008FBE0000B8030020F0B40268324BDFF861
:1035E000CCC0334D334E344C98420AD0B0F1804FAA
:1035F00007D0604505D0A84203D0B04201D0A04218
:1036000003D122F070024F683A43984228D0B0F1BB
:10361000804F25D0604523D0A84221D0B0421FD092
:10362000A0421DD0A0F1804CBCF5A03C18D0A0F168
:10363000804CBCF5A23C13D0A0F1804CBCF5A43C5E
:103640000ED0A0F1804CBCF5C05C09D0A0F1804C3C
:10365000BCF5E05C04D0A0F1804CBCF5005C05D169
:1036600022F44072D1F80CC04CEA0202D1F814C026
:1036700022F0800242EA0C0202608A68C2620A6892
:103680008262984201D0A04201D1096901630121FF
:103690004161016911F0010F03D0016921F00101BD
:1036A0000161F0BC704700000000014000040040D0
:1036B00000080040000C00400004014010B502F07A
:1036C00015FABDE810400148FEF708BF5801002078
:1036D00010B5806B0021C185C184FEF7FDFE10BDD1
:1036E00070B5846B20684069C0F3C01094F8411035
:1036F0000025212904D118B1E584204600F0A0F866
:1037000020684069C0F3801094F84210222904D147
:1037100018B1E585204600F05FF8606C40F01000BD
:1037200060642046FEF7D8FE70BD10B50146886B78
:10373000096809684FF0000311F4807F32D1C38516
:1037400001680C3151E8002F22F4807241E8002C0E
:10375000BCF1000FF4D10168143151E8002F22F0C0
:10376000010241E8002CBCF1000FF4D101681431D2
:1037700051E8002F22F0400241E8002CBCF1000F7C
:10378000F4D1202180F84210016B01290AD101688F
:103790000C3151E8002F22F0100241E8002CBCF15E
:1037A000000FF4D14363016B012902D0FFF7CCF87D
:1037B00010BD818DFEF757FE10BD10B5806B012145
:1037C0004163016B012902D0FFF7BFF810BD818D65
:1037D0004908FEF748FE10BD01680C3151E8002F82
:1037E00022F4907241E80023002BF5D101681431D6
:1037F00051E8002F22F0010241E80023002BF5D10F
:10380000016B012909D101680C3151E8002F22F028
:10381000100241E80023002BF5D1202180F842104E
:1038200000210163704710B50168CA6822F04002A8
:10383000CA60202180F84110FFF7E4F8002010BD95
:1038400001680C3151E8002F22F0C00241E800234A
:10385000002BF5D1202180F84110704708B590F871
:103860004210222901D0022008BD8268B2F5805F93
:1038700001D1016929B1816AB2F5805F1DD052B1D1
:103880000BE0816A02685268C2F308020A80816A0A
:10389000891C816209E002697AB10268526802F00B
:1038A0007F020A70816A491C8162C18D491E090428
:1038B000090CC18505D0002008BD026852680A7055
:1038C000F0E70168CA6822F02002CA600168CA688D
:1038D00022F48072CA6001684A6922F001024A61DA
:1038E000202180F8421000214163026B012A03D09D
:1038F000FFF72AF8002008BD016301680C3151E888
:10390000002F22F0100241E80023002BF5D10168BE
:103910000A6812F0100F02D00A6849680091818D80
:10392000FEF7A1FDE6E700002DE9F041044620681E
:103930000169E26821F44051114301612169A068E5
:10394000E26908436169114301432068C26822F4B7
:10395000037222F414421143C16020684169A269D4
:1039600021F44071114341612068A0F18041B1F51B
:1039700088312ED0A0F18041B1F58A3129D0FEF7EF
:10398000A9F98446E16900201927254D3226B1F5B1
:10399000004F22D06068830F8200ACFB0701FCF768
:1039A00011FC0146A5FB002040097A42424301EB8D
:1039B000820106EB0111A5FB0121490901F0F0028A
:1039C00002EB001001F00F01084421688860BDE897
:1039D000F081FEF78FF98446D4E761684A1840EB1E
:1039E0000003ACFB0701FCF7EDFB0346A5FB001051
:1039F000410918460A016FF01803594300EB810092
:103A000006EBC000A5FB0010400900F0F80102EB36
:103A1000410100F00700084421688860BDE8F0819A
:103A20001F85EB5117B581B004461346029AA26276
:103A3000A38500206064222184F84210D4F83CC0A1
:103A40001D49CCF83C10D4F83CC01C49CCF84010BF
:103A5000D4F83CC01A49CCF84C10E16B08652068DA
:103A6000011DE06BFDF7EAFA2068016840680090EC
:103A7000206948B120680C3050E8001F41F4807183
:103A800040E80012002AF5D12068143050E8001FE9
:103A900041F0010140E80012002AF5D120681430FD
:103AA00050E8001F41F0400140E80012002AF5D123
:103AB00004B0002010BD00002B370008BB37000801
:103AC000E136000890F84110212901D0022070470A
:103AD0008168B1F5805F01D1016961B1016A4A1C59
:103AE0000262026809785160C18C491E0904090C00
:103AF000C1840AD013E0016A02680988C1F3080191
:103B00005160016A891C0162EEE70168CA6822F00F
:103B10008002CA600068C16841F04001C1600020B5
:103B200070472DE9F8430446089E0D46174698460F
:103B30002068006835EA000028D00020B84232D161
:103B4000B6F1FF3F27D0FDF7EBFBA0EB0800B0423A
:103B50001ED8EEB12068C16811F0040F1BD0802D73
:103B600019D0402D17D0016811F0080F13D000258F
:103B700021680968406800902046FFF72DFE082064
:103B8000606484F840500120BDE8F8830120D5E747
:103B90000320BDE8F8832068006835EA000005D0FE
:103BA0000020B842CCD00020BDE8F8830120F8E71F
:103BB00010B501F063FFBDE810400148FEF78EBC70
:103BC000E8010020FEE700002DE9F0412DED028B19
:103BD00086B0044639A1FCF738FB05462046FCF7C1
:103BE0005CFB804636A12046FCF72FFB441C414677
:103BF00034A000F089F857E0A01C303DFCF74DFBE5
:103C0000064633A12046FCF720FB401CFCF745FB91
:103C1000643007460346324629462EA000F074F869
:103C20003846FCF7CFFC41EC180B3046FCF7CAFCD9
:103C300041EC100B04A902A8B0EE481AF0EE681A85
:103C4000FFF77CF99DED040B06468DED000B9DED15
:103C5000020B014653EC102B23A000F055F8EEB9EF
:103C60009FED270B53EC102B9DED020B51EC100B2D
:103C7000FCF720FB41EC180B8DED028B9DED040B46
:103C800051EC100BFCF7BCFC064651EC180BFCF792
:103C9000B7FC0146E8B23246FFF7F2FB07A1204627
:103CA000FCF7D3FA0546441C15B12578002DA3D1A5
:103CB00006B04046BDEC028BBDE8F0813B00000041
:103CC0003E00000074696D653D25640A0000000037
:103CD0002C00000069643D25642C783D25642C7916
:103CE0003D25640A000000007265743D25642C4186
:103CF000313D252E32662C41323D252E32660A009A
:103D00000000000000003EC00FB4054B10B503A931
:103D1000044A029801F0D4F810BC5DF814FB0000CE
:103D2000815700089800002003B4019841000098D2
:103D300050EAC12018BF04204A0D18BF40F001000E
:103D400040F2FF72B2EB515F08BF40F00200012861
:103D500008BF052002B07047004870479C00002053
:103D600010B5B94A2DED020B2DED0C8B82B00F99D9
:103D700021F000409FEDB6CB90422CDBA0F14053E8
:103D80000E9AA3F17F631A430FD0B349884202DC35
:103D900016D10E98A0B19DED0E0B02B0BDEC0C8BB0
:103DA00002B0BDE8104000F087BF0029C1BF9FED01
:103DB000AC0B02B0BDEC0C8B02B0C8BF10BD16E05E
:103DC000012000F0B5FF02B0BDEC0C8B02B0BDE8E5
:103DD000104000F07DBFA44A9FEDA59B9FEDA6ABD0
:103DE00090425EDAA6499FEDA8CB814208DBB0EE97
:103DF0004C0AF0EE6C0A02B0BDEC0C8B02B010BDA8
:103E00009DED0E0B53EC102B51EC100BFCF7F9FA57
:103E100041EC180B9E480621B0EE480AF0EE680A05
:103E2000784400F035FE53EC182B51EC100BFCF7E6
:103E3000E8FA41EC1B0B9748B0EE480AF0EE680A2E
:103E40000421784400F024FE53EC182B51EC100BA5
:103E5000FCF7D7FA53EC192BFCF72CFA41EC100BBA
:103E600051EC1B0B53EC102BFCF73DFB41EC100B02
:103E700053EC102B9DED0E0B51EC100BFCF7C1FA1F
:103E800053EC1A2BFCF7BAFA9DED0E1B53EC112BD9
:103E9000FCF7B4FA53EC1C2BFCF7B0FA41EC100B16
:103EA000A9E79FED7D8B9FED7EBB9DED0E0B00295D
:103EB00053EC192B51EC100B52DAFCF7FBF953ECD5
:103EC000182BFCF79EFA41EC180B77480621B0EE50
:103ED000480AF0EE680A784400F0DAFD53EC182B3B
:103EE00051EC100BFCF78DFA41EC1D0B6F48B0EE56
:103EF000480AF0EE680A0421784400F0C9FD53EC4A
:103F0000182B51EC100BFCF77CFA53EC192BFCF737
:103F1000D1F941EC190B51EC180B01F077FD41EC94
:103F2000180B53EC192B51EC1D0BFCF7DCFA53EC7E
:103F3000182BFCF766FA53EC1A2BFCF75CFA41ECF1
:103F4000100B51EC180B53EC102BFCF7B3F953EC9E
:103F50001B2BFCF756FA53EC1C2BFCF74FFA6DE0C9
:103F6000FCF74CFA53EC182BFCF74BFA41EC180B0E
:103F700001F04CFD41EC1A0B00208DED00AB0090E0
:103F80009DED000B51EC1A0B53EC102BFCF792F942
:103F90009DED000B41EC1C0B53EC102B51EC100B66
:103FA000FCF72FFA53EC182BFCF728FA53EC1C2BD8
:103FB000FCF799FA41EC1C0B3D48B0EE480AF0EED4
:103FC000680A0621784400F063FD53EC182B51EC8D
:103FD000100BFCF716FA41EC1D0B3648B0EE480A00
:103FE000F0EE680A0421784400F052FD53EC182BDF
:103FF00051EC100BFCF705FA53EC192BFCF75AF9AE
:1040000041EC100B51EC1D0B53EC102BFCF76BFA31
:1040100053EC1A2BFCF7F5F953EC1C2BFCF74AF97F
:1040200041EC100B53EC102B9DED000B51EC100BE1
:10403000FCF740F953EC1B2BFCF7E3F941EC100BB8
:10404000D9E60000000000000000F03F0000000082
:10405000182D4454FB2109400000F07F00000000AF
:1040600000000000000000000000E03F0000000031
:10407000000000000000F03F075C143326A6913CCE
:104080000000603C00000000182D4454FB21F93F63
:104090002C1E00003A1E0000000000000000E03F5F
:1040A0000000000000000040761D0000841D00009C
:1040B000881C0000961C000070B59B482DED020B7B
:1040C0002DED068B079D25F00044A04218DC974893
:1040D000844202DC0AD1069840B19DED060BBDEC8E
:1040E000068B02B0BDE8704000F0E6BD002DCCBFED
:1040F0009FED8F0B9FED900BBDEC068B02B070BD5A
:104100008F48A04215DD8F48A042D8BF4FF0FF3442
:1041100058DD9DED060B51EC100BFFF705FE042852
:1041200008BF00F0E5FD9DED060BBDEC068B02B06F
:1041300070BD9DED060B51EC100B01F015FBCDE9A8
:10414000060181489FED828BA0423CDD8248A0425F
:104150001FDD00249FED82AB9DED060B53EC1A2B67
:1041600051EC100BFCF7A6F89DED060B41EC190B7A
:1041700053EC1A2B51EC100BFCF743F953EC182BB2
:10418000FCF739F953EC192BFCF7ADF9CDE9060131
:1041900049E09DED060B012453EC182B51EC100B5C
:1041A000FCF788F89DED060B41EC190B53EC182B2E
:1041B00051EC100BFCF71FF953EC192BFCF793F99A
:1041C000CDE906012FE06848A0421FDD02249FEDE3
:1041D000689B9DED060B53EC192B51EC100BFCF773
:1041E00010F953EC182BFCF765F89DED060B41EC2C
:1041F000180B53EC192B51EC100BFCF7FCF853EC9B
:10420000182BFCF770F9CDE906010CE09DED060BCB
:10421000032453EC102B9FED580B51EC100BFCF7C3
:1042200062F9CDE906019DED060B53EC102B51EC24
:10423000100BFCF7E6F841EC180B53EC182BFCF7CD
:10424000E0F841EC190B4E480621B0EE490AF0EEB9
:10425000690A784400F01CFC53EC182B51EC100B4D
:10426000FCF7CFF841EC180B4648B0EE490AF0EEE7
:10427000690A0521784400F00BFC53EC192B51EC32
:10428000100BFCF7BEF841EC100B51EC180B53EC83
:10429000102B002C0EDAFCF70DF89DED061B53ECED
:1042A000112BFCF7AEF89DED061B53EC112BFCF720
:1042B000A5F835E0FBF7FEFF9DED061B53EC112B37
:1042C000FCF79FF841EC100B2F48784400EBC4003A
:1042D00090ED001B51EC100B53EC112BFCF78BF8FD
:1042E0009DED061B53EC112BFCF785F841EC100BF0
:1042F0002648784400EBC40090ED001B51EC100BF5
:1043000053EC112BFCF77AF841EC100B002DA2BFF7
:10431000BDEC068B02B070BD51EC100B81F000417A
:1043200041EC100B01E70000000010440000F07F9A
:10433000182D4454FB21F93F182D4454FB21F9BF9B
:104340000000DC3F0000203E0000F33F00000000C2
:10435000000000000000F03F0000E63F0000000009
:10436000000000000000004000800340000000004A
:10437000000000000000F83F000000000000F0BF57
:10438000B21A0000681A0000F2190000AA19000011
:1043900010B52F499FED2C1B2DED020B84B0059815
:1043A00020F000408842D8BF9DED040B2DDD294947
:1043B000884209D1049840B94FF0010000F0B8FCE0
:1043C00000F086FC06B010BD05DB9DED040B00F08F
:1043D00073FC06B010BD68469DED040B00F084F838
:1043E00010F0030004BF9DED021B9DED000B0CD0EF
:1043F00001280ED09DED021B9DED000B022817D069
:10440000012000F0C1FB06B010BD00F089FA06B033
:1044100010BD9DED021B9DED000B012000F0B4FBD3
:1044200051EC100B81F0004106B041EC100B10BDB7
:1044300000F076FA51EC100B81F0004106B041EC2F
:10444000100B10BD00000000000000000000000084
:10445000FB21E93F0000F07F2DED020B019820F0D9
:10446000004001909DED000B02B0704700B52DEDAE
:10447000048BB0EE409AF0EE609A83B051EC190BC9
:10448000FCF716FA41EC180B18EE100A18EE901A09
:104490008DED008B002818BF0120084320F000405C
:1044A000C0F17F6000F1E040C00F14D019EE101A87
:1044B00019EE900A8DED009B002918BF01210843D9
:1044C00020F00040C0F17F6000F1E040C00F04BF69
:1044D000012000F02DFCB0EE480A03B0F0EE680AAF
:1044E000BDEC048B00BD00002DE9F14F04462DED1D
:1044F000020B2DED088B8AB09FEDE70B80ED020BD0
:10450000139EE74826F0004585420ADC9DED120B1C
:10451000002084ED000B0AB0BDEC088B03B0BDE8B1
:10452000F08FE0489FEDE0AB9FEDE1BBA84247DD97
:10453000E14F9FEDE39B9FEDE48B9DED120B53EC60
:104540001A2B51EC100B002E1CDDFBF754FF41EC35
:10455000100BBD4208D053EC1B2B51EC100BFBF79A
:104560004AFFC4E900010BE053EC192B51EC100B8E
:10457000FBF741FF53EC182BFBF73DFFC4E90001AB
:104580000120C8E7FBF796FE41EC100BBD4208D0B6
:1045900053EC1B2B51EC100BFBF78CFEC4E9000114
:1045A0000BE053EC192B51EC100BFBF783FE53EC93
:1045B000182BFBF77FFEC4E900014FF0FF30AAE79C
:1045C000C348A84279DB9DED120B51EC100B01F0B2
:1045D000CBF841EC180B9FEDC00B53EC102BFBF705
:1045E00010FF9FEDBF1B53EC112BFBF763FEFCF795
:1045F00007F80746FBF7E6FF41EC190B53EC1A2BC3
:10460000FBF7FFFE53EC182BFBF7F8FE41EC180B01
:1046100053EC1B2B51EC190BFBF7F3FEDFF8C8A290
:1046200041EC100B4FEA15580125FA4453EC102BBE
:1046300051EC180BFBF7DFFE032DC4E900013DD060
:10464000C1F30A5005EB4511A8EB00001139814276
:1046500034DA0AEB051BB0EE48AA9BED000BF0EE36
:1046600068AA53EC102B51EC190BFBF7CAFE41EC76
:104670001B0B51EC1A0B53EC1B2BFBF7BCFE41EC54
:10468000180B51EC1A0B53EC182BFBF7B4FE53EC40
:104690001B2BFBF7B0FE9BED020B41EC1A0B53EC0E
:1046A000102B51EC190BFBF7ACFE53EC1A2BFBF75C
:1046B000A2FE41EC100B6D1CB8E70EE0002EA8BF67
:1046C0003846BFF628AF94ED000B51EC100B81F08B
:1046D0000041C4E9000178421DE7C6F3130040F42D
:1046E000801EC6F30A50A0F2F530471100F01F05F6
:1046F000C5F12000DDF848B0089000200690079032
:104700000520EC467949002D07EB0002794408BFEB
:1047100051F8221009D051F8223001EB8201AB4050
:104720004A68089922FA01F11943A1FB0E26A1FB60
:104730000B131A449A4234BF0123002303EB0608EB
:104740000CEB8003D3E901A60E448E4234BF012155
:10475000002192448A4411B1924502D903E0924566
:1047600001D2012100E00021C3E901A641444CF837
:104770002010011EA0F10100C4DC029800F10050DD
:10478000850F0298DDE903678000DDF81480FBF7F0
:1047900019FF41EC1A0B3046FBF725FF9FED541B28
:1047A00053EC112BFBF72DFE41EC1B0B3846FBF7AE
:1047B0001AFF9FED511B53EC112BFBF722FE41EC2E
:1047C000180B4046FBF70FFF9FED4D1B53EC112BD1
:1047D000FBF717FE41EC190B51EC180B53EC192B9E
:1047E000FBF768FD53EC1B2BFBF764FD53EC1A2B16
:1047F000FBF760FDCDE90801002008909DED080B56
:1048000053EC1A2B51EC100BFBF7F5FD53EC1B2B63
:10481000FBF7F1FD53EC182BFBF7EDFD53EC192BD7
:10482000FBF7ECFD9FED381B53EC112BFBF7E9FD7B
:104830009FED370B41EC180B53EC102B9DED080B43
:1048400051EC100BFBF7DDFD53EC182BFBF732FDA1
:104850009FED310B41EC180B53EC102B9DED080B29
:1048600051EC100BFBF7CDFD53EC182BFBF722FDA1
:1048700041EC100B139810F0004F06D06D4251EC34
:10488000100B81F0004141EC100B284684ED000B29
:1048900041E60000000000000000000000000000F1
:1048A000FB21E93F7CD9024000004054FB21F93F45
:1048B0003163621A61B4D03DFB21F93F0000000072
:1048C0000000601A61B4D03D7370032E8A19A33BB7
:1048D000FB2139410000000083C8C96D305FE43F0F
:1048E000000000000000E03F3A17000088160000BA
:1048F000000000000000103E000000000000103C1E
:10490000000000000000103A182D4454FB21F93D2E
:104910003326A611460B113C00000054FB21F93D43
:1049200010B52DED040B2DED088B82B0B0EE419A41
:10493000F0EE619A0B9820F000449FED4BABB4F180
:10494000795F11DA9DED0A0B51EC100BFBF758FE65
:10495000002801BFB0EE4A0AF0EE6A0A02B0BDECD0
:10496000088B04BF04B010BD9DED0A0B53EC102B57
:1049700051EC100BFBF745FD41EC180B3C480621B0
:10498000B0EE480AF0EE680A784400F081F853EC83
:10499000182B51EC100BFBF734FD9DED0A0B41EC8D
:1049A0001B0B53EC192B51EC100BFBF72AFD41ECC0
:1049B000190B53EC1B2B51EC180BFBF722FD53EC9E
:1049C000192BFBF718FD9FED2C0B41EC190B53EC49
:1049D000102B51EC180BFBF714FD41EC100B284881
:1049E000844210DA53EC192B51EC100BFBF703FD4A
:1049F00053EC1A2BFBF702FD41EC100B02B0BDEC9F
:104A0000088B04B010BD1F48A042BCBF9FED1E1B09
:104A10008DED001B06DBA4F5001001900020009036
:104A20009DED001B51EC100B53EC112BFBF7E3FC3D
:104A30009DED000B41EC180B53EC102B51EC1A0BB5
:104A4000FBF7D9FC41EC1A0B53EC192B51EC180B6A
:104A5000FBF7D1FC53EC1A2BFBF7D0FC41EC100B0D
:104A6000CCE7000000000000000000000000F03F64
:104A7000AC13000000000000000000000000E03F58
:104A80003333D33F0000E93F000000000000D23F75
:104A900070B504462DED028B4D1E00EBC500B0EE47
:104AA000408AF0EE608A90ED000B35F0060017D0DA
:104AB00053EC182B51EC100BFBF7A3FC41EC100B43
:104AC0006D1E04EBC50090ED001B51EC100B53EC78
:104AD000112BFBF7EFFB41EC100B35F00600E7D193
:104AE000022D36D0042D1CD0062D1CBFBDEC028B30
:104AF00070BD53EC182B51EC100BFBF782FC94EDBE
:104B00000A1B53EC112BFBF7D5FB53EC182BFBF7CF
:104B100078FC94ED081B53EC112BFBF7CBFB41EC1D
:104B2000100B53EC182B51EC100BFBF76AFC94EDB7
:104B3000061B53EC112BFBF7BDFB53EC182BFBF7BB
:104B400060FC94ED040B53EC102BFBF7B3FB41EC32
:104B5000100B53EC182B51EC100BFBF752FC94ED9F
:104B6000021B53EC112BFBF7A5FB53EC182BFBF7A7
:104B700048FC94ED001B53EC112BFBF79BFBBDECA9
:104B8000028B41EC100B70BD31B504462DED040BCA
:104B90002DED0A8BB0EE41BAF0EE61BA0B989DEDA7
:104BA0000A0B20F00040B0F1795F0DDA51EC100BE8
:104BB000FFF7BAF8042808BF00F09AF89DED0A0B39
:104BC000BDEC0A8B05B030BD53EC102B51EC100B33
:104BD000FBF717FC41EC180B9DED0A0B53EC182B5F
:104BE00051EC100BFBF70DFC41EC190B2C48B0EE0F
:104BF000480AF0EE680A05217844FFF749FF9FED67
:104C00002ACBB0EE40AAF0EE60AA9CB353EC1C2B6A
:104C100051EC190BFBF7F5FB41EC1C0B53EC1A2B79
:104C200051EC190BFBF7EDFB9FED210B41EC190B40
:104C300053EC102B51EC1B0BFBF7E3FB53EC192B44
:104C4000FBF7D9FB53EC182BFBF7DBFB53EC1B2BCF
:104C5000FBF7D1FB53EC1C2BFBF7CDFB9DED0A1BA7
:104C600053EC112BFBF7CAFBBDEC0A8B05B041ECF2
:104C7000100B30BDFFE753EC1A2B51EC180BFBF770
:104C8000C0FB53EC1C2BFBF715FB53EC192BFBF76C
:104C9000B8FB9DED0A1B53EC112BFBF70BFBE3E775
:104CA0003412000000000000495555555555C5BF48
:104CB000000000000000E03F10B553EC102B51EC59
:104CC000100BFBF7F7FA41EC100B10BD00000000D1
:104CD0009FED050B10B553EC102B51EC100BFBF7AF
:104CE00002FC41EC100B10BD0000000000000000B1
:104CF0009FED050B10B553EC102B51EC100BFBF78F
:104D000080FB41EC100B10BD000000000000001003
:104D100002E008C8121F08C1002AFAD17047704784
:104D2000002001E001C1121F002AFBD170470000E2
:104D300001490860704700009C0000202DE9FF5FDA
:104D400082B00021DDE90430020DDDF840B00343FC
:104D500018D044F61050A2F2FF32424315141198B5
:104D600001281FD0A5EB0B00401C5FEA000A4FF0A2
:104D700000064E4FDFF83891B046504615D5CAF1BF
:104D8000000413E0119801244AA3012801D16FEA1D
:104D90000B010298119AC0E90031C0E9024206B045
:104DA000BDE8F09FCBF10000DFE704460021404A58
:104DB000491842EB0450CDE9001012E0E00707D09B
:104DC00032463B4640464946FBF71BFB8046894638
:104DD00032463B4610461946FBF713FB06460F4684
:104DE0006410002CEAD1DDE90401DDE90023BAF109
:104DF000000F06DAFBF705FB42464B46FBF701FBCB
:104E000005E0FBF770FB42464B46FBF76CFB0446A4
:104E10000E460022284BFBF757FC03D84FF0FF301B
:104E2000014607E00022254B20463146FBF742FAB7
:104E3000FBF78FFD102409E0002C0ADB0A22002377
:104E4000FBF7C0F9039B30321A55641E50EA010289
:104E5000F2D1641C039AC4F111031444119A012A7B
:104E600003D0012208430DD10AE0084304D00020FA
:104E70004FF0110B119072E7A3EB0B056D1E0DE0C7
:104E80005B4504DD4FF0000205F1010504E003DAA3
:104E90004FF00002A5F10105002AECD0029811990B
:104EA000C0E90231C0E9004579E700000000144084
:104EB0000000F03F300000000000F0430000E03F41
:104EC0002DE9FF4F95B09A46884606460025EEE14B
:104ED000252877D100242746F94A0121039400E0D0
:104EE000044316F8013F203B01FA03F01042F7D1CA
:104EF00030782A2811D06FF02F033078A0F13002DB
:104F0000092A16D8039A44F0020402EB820203EB4A
:104F100042021044761C0390EFE758F8042B0392EA
:104F2000002A03DA504244F40054039044F002048F
:104F3000761C30782E2816D116F8010F44F00404A0
:104F40002A280DD06FF02F023078A0F13003092B02
:104F500009D807EB870302EB4303C718761CF3E776
:104F600058F8047B761C30786C280FD006DC4C286F
:104F700017D068280DD06A2814D104E0742810D006
:104F80007A280FD10DE044F400140AE044F48014B0
:104F900001E044F440147278824202D104F5801496
:104FA000761C761C307866280BD013DC582877D016
:104FB00009DC002875D04528F6D04628F4D04728CB
:104FC0001AD193E118E0632835D0642879D0652898
:104FD00012D18BE1702873D008DC6728F1D06928E2
:104FE0006FD06E280DD06F2806D1ACE073282CD07E
:104FF000752874D0782853D05246179990476D1C65
:1050000054E1C4F30250022809D003280DD0D8F887
:10501000001004280DD00D6008F1040846E1D8F80E
:105020000010EA17C1E90052F6E7D8F800100D8029
:10503000F2E70D70F0E718F8041B8DF8001000205F
:105040008DF80100EB46012003E058F804BB4FF057
:10505000FF3061074FF0000102D40DE009F10101BA
:105060008946B9420FDA8145F8DB1BF8091000299F
:10507000F4D108E009F1010189468142FADB1BF80D
:1050800009100029F6D103985346A0EB09072146E1
:105090003846179A00F080FA284400EB090507E02B
:1050A00044E008E10DE01BF8010B524617999047C8
:1050B000B9F10109F7D2534621463846179AF2E072
:1050C00039E00A21C4F302524FF0000B0091022A8A
:1050D00006D058F8040BC117032A09D00AE023E0D0
:1050E00008F1070020F00702F2E80201904605E00F
:1050F00000B2C117042A01D140B2C117002906DA53
:105100000A460021404261EB02012D2202E0220505
:1051100004D52B228DF80420012203E0E20701D000
:105120002022F7E7914657E00A2100E010214FF0D6
:10513000000B00910BE010214FF0000B44F0040431
:105140000827009103E008204FF0000B0090C4F303
:105150000252022A05D058F8040B0021032A08D075
:1051600008E008F1070020F00702F2E8020190468B
:1051700003E080B2042A00D1C0B24FF00009220738
:105180002AD53278702A07D0DDF800C08CF0100CD8
:105190005CEA0B0C05D00EE040228DF804200122C1
:1051A00008E050EA010306D030238DF804308DF872
:1051B000052002229146009B83F0080353EA0B036B
:1051C0000AD150EA010201D1620705D530228DF8DB
:1051D00004204FF001097F1E3278582A04D039A2EA
:1051E0000C920CAA02920BE03BA2F9E75B46009AF4
:1051F000FAF7E8FF0C9B9B5C029A521E0292137016
:1052000050EA0102F2D1029804A9081A00F1200B19
:10521000600702D524F4803400E001275F4502DDF9
:10522000A7EB0B0000E0002000EB0B0100900398BF
:105230004944401A0390E00306D453462146179A86
:10524000039800F0A9F90544002706E001A852469A
:10525000C05D179990476D1C7F1C4F45F6DBE0033E
:105260000CD553462146179A039800F095F905444A
:1052700004E030205246179990476D1C0099481E53
:1052800000900029F5DC08E0029802995246007867
:10529000491C0291179990476D1CBBF10001ABF1BD
:1052A000010BF1DC5BE100F065F90544761C307818
:1052B00000287FF40DAE19B02846BDE8F08F00003D
:1052C00009280100303132333435363738396162DC
:1052D00063646566000000003031323334353637A0
:1052E000383941424344454600000000600700D47D
:1052F000062708F1070020F00700F0E802238046A7
:1053000003F0004C5FEA0C0001D097A009E02005F3
:1053100001D596A005E0E00701D095A001E0AFF22D
:105320004C001390307823F0004365280CD006DC45
:10533000452809D046281DD047287FD13BE0662864
:1053400018D067287AD136E00021112F01DB112017
:1053500000E0781CCDE9000104A90CA8FFF7EEFCE1
:10536000DDE90D010C9A4FF0000B07F101091092D5
:1053700000914EE04FF000400097CDE9011004A9E4
:105380000CA8FFF7DBFCDDE90D020C9B0F994FF039
:10539000000B91461093009211B9791C00EB0109A2
:1053A000B7EB090003D4C0F1FF3B07F10109A9EBFA
:1053B0000700019042E0012F00DA01270021112FA0
:1053C00001DD112000E03846CDE9000104A90CA858
:1053D000FFF7B4FCDDE90D010C9A00914FF0000BD2
:1053E000B946109221070FD4009A4A4503DA914634
:1053F00001E0A9F10109B9F1010F05DD109AA9F148
:105400000101515C3029F4D0B84202DA10F1040FE6
:1054100003DA0121CDE9011010E0002803DC834408
:10542000A9EB000102E0411C494500DD8946A0EBE3
:105430000B00401C01904FF000400290200705D463
:105440000198484502DB4FF0FF30019000208DF8B5
:105450004B0002980DF14B07B0F1004F25D0022010
:105460000C902B200D90029800280CDA40420290FC
:105470002D200D9007E00A210298FBF73DF930310D
:10548000029007F8011D0C99481E0C900029F2DCCF
:1054900002980028EFD1791E0D980870307800F03E
:1054A000200040F0450007F8020D11A8C01BC01DE8
:1054B00002901398007800B1012000EB09010198D7
:1054C00001EBE071029801440398401A401E0390DA
:1054D000E00306D453462146179A039800F05CF87F
:1054E00005441398007818B15246179990476D1CDF
:1054F000E00323D553462146179A039800F04CF851
:1055000005441BE0BBF1000F07DB0098584504DDA4
:105510001098179910F80B0001E0179930205246A7
:10552000904701980BF1010B401E05F10105019018
:1055300004D12E205246179990476D1CB9F10001F5
:10554000A9F10109DEDC05E017F8010B52461799B5
:1055500090476D1C0299481E02900029F4DC5346C6
:105560002146179A03989EE62D0000002B000000AC
:10557000200000002DE9F041044600251E46174694
:10558000880404D405E039462020B0476D1C641E11
:10559000F9D52846BDE8F0812DE9F0410446002503
:1055A0001E469046C80301D5302700E02027880416
:1055B00004D505E041463846B0476D1C641EF9D558
:1055C0002846BDE8F08100002DE9F0410E46054671
:1055D0000027314C5CE02078062856D2DFE800F046
:1055E0000311151B252B2878402802D03E2804D013
:1055F0004BE001202070677048E003202070A77006
:1056000044E028786070022013E028783B283CD1E1
:105610006078E07039E03E206070287830380928E2
:1056200033D8A070A780042003E028783A282CD132
:10563000052020702AE02878A0F13001092909D836
:10564000A1886FF02F0201EB810102EB41010844B8
:10565000A0801BE03B2818D1A288A1780FA0FEF7FC
:1056600053FBA078022805D0032803D0062801D0D8
:10567000072803D1A188C1F1B401A180082804D270
:10568000A188B42901D8FDF747FE27706D1C761E4E
:10569000002EA0D1BDE8F081680000205367494486
:1056A0003D25642C5367416E67656C3D25640A0097
:1056B0002DE9F0470E460546DFF89480DFF8949018
:1056C00039E03B2807D0244BB9F806105854491C40
:1056D000A9F806102DE0204920A0FEF715FBB9F827
:1056E000060019281ED91A4918221C391A48FAF737
:1056F000C5FDB8B9DFF860A000240AF1180A09E076
:105700005046FAF7B4FD421E50467968FAF7B6FDE6
:10571000C0B1641C08EBC407796819B118F83400EB
:105720000028EDD10021A9F8061064210A48FAF7F3
:1057300081FD6D1C761E2878002801D0002EC0D176
:10574000BDE8F08718F8341089F80310EAE7000084
:10575000DC5B000868000020A00000205265637632
:10576000436D643A25730A0082B0CDE9000121F04F
:10577000004001909DED000B02B051EC100B704702
:1057800013B50223012269460248FDF7DFF80098AD
:105790001CBD0000E8010020074930B40A6903205D
:1057A00001EB800451F820306360401EF8D50A6098
:1057B00030BC014800F01AB97400002008B5FCF7AD
:1057C000D5F8FDF78FFEFDF735FD7A480024016816
:1057D00041F4001101600068224600F400100090BE
:1057E00021460D20FCF74EF90D20FCF73DF9002273
:1057F00011461020FCF746F91020FCF735F96F48E8
:105800006D494FF4E1360160C0E901640C27C460C2
:10581000C0E904478461C461FCF794FF00B1FEE76E
:10582000664867499C3801606649C0E901144FF435
:105830008041C0E9034144618461C4610462FBF7B3
:1058400075FD00B1FEE75D4D5F48483DB8462860F4
:10585000C5E90164EC60C5E90447AC612846EC6128
:10586000FCF770FF00B1FEE7544F584848373860E6
:10587000C7E90164FC60C7E90448BC613846FC61C3
:10588000FCF760FF00B1FEE751A0FEF73DFA386873
:10589000C16841F01001C160484964229031A1F112
:1058A0004800FDF743F82868C16841F01001C16065
:1058B000424964229031A1F1D800FDF737F89FEDFD
:1058C000490AFDF74FFD00210820FDF725FD5A216B
:1058D0000920FDF721FDB4210A20FDF71DFD2D2132
:1058E0000B20FDF719FD00210846FDF715FD0021ED
:1058F0000120FDF711FDB4210220FDF70DFDB421BB
:105900000320FDF709FD00210420FDF705FD00211E
:105910000520FDF701FDB4210620FDF7FDFCB421B3
:105920000720FDF7F9FC304800F060F82E4D4FF4E9
:1059300096760C3DE878712822D00CDC632826D0BE
:1059400004DC3E2821D061282AD113E0642814D039
:10595000652825D117E0732809D0772804D0782846
:1059600019D07A281CD119E0FBF742F918E0FBF7AF
:1059700021F915E0FBF730F912E0FBF733F90FE0FE
:10598000FBF724F901E0FBF74BF9EC7008E0EC7051
:10599000FBF740F904E0FBF713F901E0FBF746F9E8
:1059A000FBF7BEFCA968411AB142C3D9A860FFF752
:1059B000F3FEBFE73038024000100140A001002094
:1059C00000580040801A0600004C0040004400408F
:1059D000526F626F746963446F672073746172748D
:1059E00021000000000048427400002070B5064EFF
:1059F00005460024202155F82420304600F0ACF85C
:105A0000641C052CF6DB70BD0010024000B52DEDC6
:105A1000048B83B041EC190BFAF74AFF41EC180BE9
:105A200018EE100A18EE901A8DED008B002818BFA2
:105A30000120084320F00040C0F17F6000F1E04009
:105A4000C00F14D019EE101A19EE900A8DED009BBC
:105A5000002918BF0121084320F00040C0F17F60F9
:105A600000F1E040C00F04BF0120FFF761F951ECE5
:105A7000180B03B0BDEC048B00BD000038B5164C0C
:105A800020680168C943C90625D4016840680090B0
:105A90002046FCF7E9FCE06B006840680E49C0F165
:105AA000640448310DA0FEF72FF90B482146483019
:105AB000FFF78AFD084821464830FAF7BBFB064944
:105AC000642248310448FCF731FFBDE83840022128
:105AD0000548FBF715BC38BDE80100207278323A62
